{
  "contractName": "testContract",
  "abi": [
    {
      "inputs": [
        {
          "internalType": "uint256",
          "name": "num1",
          "type": "uint256"
        },
        {
          "internalType": "uint256",
          "name": "num2",
          "type": "uint256"
        }
      ],
      "name": "add",
      "outputs": [
        {
          "internalType": "uint256",
          "name": "",
          "type": "uint256"
        }
      ],
      "stateMutability": "pure",
      "type": "function",
      "constant": true
    },
    {
      "inputs": [
        {
          "internalType": "uint256",
          "name": "num1",
          "type": "uint256"
        },
        {
          "internalType": "uint256",
          "name": "num2",
          "type": "uint256"
        }
      ],
      "name": "mult",
      "outputs": [
        {
          "internalType": "uint256",
          "name": "",
          "type": "uint256"
        }
      ],
      "stateMutability": "pure",
      "type": "function",
      "constant": true
    },
    {
      "inputs": [
        {
          "internalType": "string",
          "name": "str",
          "type": "string"
        }
      ],
      "name": "store",
      "outputs": [],
      "stateMutability": "nonpayable",
      "type": "function"
    }
  ],
  "bytecode": "0x608060405234801561001057600080fd5b506102a0806100206000396000f3fe608060405234801561001057600080fd5b50600436106100415760003560e01c8063131a068014610046578063771602f7146101015780639aa727f61461014d575b600080fd5b6100ff6004803603602081101561005c57600080fd5b810190808035906020019064010000000081111561007957600080fd5b82018360208201111561008b57600080fd5b803590602001918460018302840111640100000000831117156100ad57600080fd5b91908080601f016020809104026020016040519081016040528093929190818152602001838380828437600081840152601f19601f820116905080830192505050505050509192919290505050610199565b005b6101376004803603604081101561011757600080fd5b8101908080359060200190929190803590602001909291905050506101b3565b6040518082815260200191505060405180910390f35b6101836004803603604081101561016357600080fd5b8101908080359060200190929190803590602001909291905050506101c0565b6040518082815260200191505060405180910390f35b80600190805190602001906101af9291906101cd565b5050565b6000818301905092915050565b6000818302905092915050565b828054600181600116156101000203166002900490600052602060002090601f016020900481019282601f1061020e57805160ff191683800117855561023c565b8280016001018555821561023c579182015b8281111561023b578251825591602001919060010190610220565b5b509050610249919061024d565b5090565b5b8082111561026657600081600090555060010161024e565b509056fea264697066735822122071949f05293483e862a3b163148a5a3ce2909dfc82d87f41e63e4aaa76419d4a64736f6c63430007000033",
  "immutableReferences": {},
  "source": "pragma solidity >=0.7.0 <0.8.0;\n\ncontract testContract{\n    \n    uint256 number;\n    string name;\n    \n    function add(uint256 num1, uint256 num2) public pure returns (uint256){\n        return num1 + num2;\n    }\n\n    \n    function mult(uint256 num1, uint256 num2) public pure returns (uint256){\n        return num1*num2;\n    }\n    \n    function store(string memory str) public {\n        name = str;\n    }\n}\n",
  "sourcePath": "/home/giulia/Desktop/simpleProject/contracts/testContract.sol",
  "compiler": {
    "name": "solc",
    "version": "0.7.0+commit.9e61f92b.Emscripten.clang"
  },
  "schemaVersion": "3.3.3",
  "updatedAt": "2021-02-04T10:08:00.977Z",
  "networkType": "ethereum",
  "devdoc": {
    "kind": "dev",
    "methods": {},
    "version": 1
  },
  "userdoc": {
    "kind": "user",
    "methods": {},
    "version": 1
  }
}